:020000040800F2
:10000000600600206D0100087501000877010008F6
:10001000790100087B0100087D0100080000000054
:100020000000000000000000000000007F01000848
:10003000810100080000000083010008850100081C
:100040008701000887010008870100088701000870
:1000500087010008870100082902000887010008BD
:100060008701000887010008870100088701000850
:100070008701000887010008870100088701000840
:100080008701000887010008870100088701000830
:100090008701000887010008870100088701000820
:1000A0008701000887010008870100088701000810
:1000B0008701000887010008870100088701000800
:1000C00087010008870100088701000887010008F0
:1000D00087010008870100088701000887010008E0
:1000E00087010008870100088701000800F002F876
:1000F00000F02CF80AA090E8000C82448344AAF196
:100100000107DA4501D100F021F8AFF2090EBAE893
:100110000F0013F0010F18BFFB1A43F0010318473B
:1001200020040000300400000023002400250026E5
:10013000103A28BF78C1FBD8520728BF30C148BF4A
:100140000B6070471FB51FBD10B510BD00F031F832
:100150001146FFF7F7FF00F0A9F900F04FF803B4DC
:10016000FFF7F2FF03BC00F057F800000948804792
:1001700009480047FEE7FEE7FEE7FEE7FEE7FEE789
:10018000FEE7FEE7FEE7FEE704480549054A064BA1
:1001900070470000C5030008ED0000086000002063
:1001A0006006002060020020600200207047704757
:1001B0007047754600F02CF8AE4605006946534678
:1001C00020F00700854618B020B5FFF7DDFFBDE839
:1001D00020404FF000064FF000074FF000084FF0AE
:1001E000000BAC46ACE8C009ACE8C009ACE8C009FB
:1001F000ACE8C00921F007018D46704710B50446F0
:10020000AFF300802046BDE81040FFF7A8BF000014
:10021000004870470000002001491820ABBEFEE7EF
:10022000260002007047000040F21440C4F20100B2
:10023000016841F00101016001200C21012200F060
:10024000FBF803200D2100F0E9F8322000F012F94C
:10025000F2E7000070B541F2180E40F600060729DB
:100260004FF00005C4F2020EC4F2010684BF01255E
:10027000083901284FF0000C07D1DEF8004006EBEA
:10028000850C44F00404CEF80040032809D1DEF8C0
:10029000000040F01000CEF8000006EB850000F5ED
:1002A000006C4FF6FC70C0F2030000EA81000F21E1
:1002B000DCF80060814026EA0101CCF8001002FA67
:1002C00000F1023003FA00F0DCF80020084310438C
:1002D000CCF8000070BD000040F608020128C4F20E
:1002E000010204D0032814BF002202F50062106846
:1002F00001228A401040C8407047000080B500F0DD
:1003000001F880BD82B041F204000021C4F2020075
:100310000191009150F8041C41F4803140F8041C14
:1003200050F8041C01F40031009101990131019150
:10033000009919B90199B1F5A06FF1D150F8041CD9
:10034000890354BF0021012100910099012936D170
:1003500042F20001C4F202010A6842F010020A608F
:100360000A6822F003020A600A6842F002020A6088
:100370000168016001680160016841F48061016009
:10038000016821F47C110160016841F4E811016009
:1003900050F8041C41F0807140F8041C50F8041C13
:1003A0008901FBD5016821F003010160016841F07A
:1003B00002010160016801F00C010829FAD102B0C4
:1003C0007047000080B541F20000C4F202000168ED
:1003D000002241F0010101604168CFF6FF021140A7
:1003E000416001684FF6FF72CFF6F662114001607E
:1003F000016821F480210160416821F4FE0141601F
:100400004FF41F018160FFF779FF4EF60850CEF2DE
:1004100000004FF00061016080BD0000B0B50C46E7
:100420000546FFF759FF421E2846214618BF012204
:1004300000F002F8B0BD000040F60C030128C4F241
:10044000010304D0032814BF002303F50063012037
:100450008840002A19680CBF21EA00000843186090
:10046000704700004EF20010CEF200004021016003
:100470007047000081B0B0B14FF0000C42F20F7233
:1004800042F2107301E000BF68B1CDF800C00099DE
:1004900001389142F8D800BF0099013100910099CC
:1004A0009942F9D3F0E701B0704700000120002124
:1004B000002202230024FFF7CDFE03200D2103229A
:1004C0000023FFF7C7FE01200C2103220023FFF7C2
:1004D000C1FE41F21800C4F20200016821F00F01D0
:1004E0000160016841F001010160EFF3108072B614
:1004F0004FF6084040F20041CFF6FF70C4F2010110
:100500000C5040F21440C4F20100026842F00102B3
:100510000260086840F001000860886840F001004F
:100520008860FFF79FFF62B601200C210022FFF7D1
:1005300083FF03200D210022FFF77EFFF4E7000078
:100540005005000800000020600600002801000897
:040000050800016D81
:00000001FF
