:020000040800F2
:10000000600600206D0100087501000877010008F6
:10001000790100087B0100087D0100080000000054
:100020000000000000000000000000007F01000848
:10003000810100080000000083010008850100081C
:100040008701000887010008870100088701000870
:100050008701000887010008870100088701000860
:100060008701000887010008870100088701000850
:100070008701000887010008870100088701000840
:100080008701000887010008870100088701000830
:100090008701000887010008870100088701000820
:1000A0008701000887010008870100088701000810
:1000B0008701000887010008870100088701000800
:1000C00087010008870100088701000887010008F0
:1000D00087010008870100088701000887010008E0
:1000E00087010008870100088701000800F002F876
:1000F00000F02CF80AA090E8000C82448344AAF196
:100100000107DA4501D100F021F8AFF2090EBAE893
:100110000F0013F0010F18BFFB1A43F0010318473B
:10012000B0040000C00400000023002400250026C5
:10013000103A28BF78C1FBD8520728BF30C148BF4A
:100140000B6070471FB51FBD10B510BD00F031F832
:100150001146FFF7F7FF00F00DF900F04FF803B478
:10016000FFF7F2FF03BC00F057F800000948804792
:1001700009480047FEE7FEE7FEE7FEE7FEE7FEE789
:10018000FEE7FEE7FEE7FEE704480549054A064BA1
:100190007047000029020008ED0000086000002000
:1001A0006006002060020020600200207047704757
:1001B0007047754600F02CF8AE4605006946534678
:1001C00020F00700854618B020B5FFF7DDFFBDE839
:1001D00020404FF000064FF000074FF000084FF0AE
:1001E000000BAC46ACE8C009ACE8C009ACE8C009FB
:1001F000ACE8C00921F007018D46704710B50446F0
:10020000AFF300802046BDE81040FFF7A8BF000014
:10021000004870470000002001491820ABBEFEE7EF
:10022000260002007047000082B041F20400C4F2D0
:10023000020050F8041C002241F0010140F8041CA7
:100240000168CFF6FF021140016050F8041C4FF620
:10025000FF72CFF6F662114040F8041C50F8041CFF
:1002600021F4802140F8041C016821F4FE010160A2
:100270004FF41F01416000210191009150F8041CCE
:1002800041F4803140F8041C50F8041C01F40031A2
:100290000091019901310191009919B90199B1F5C4
:1002A000A06FF1D150F8041C890354BF0021012133
:1002B00000910099012953D142F20001C4F20201D8
:1002C0000A6842F010020A600A6822F003020A601B
:1002D0000A6842F002020A60016801600168016078
:1002E000016841F480610160016821F47C110160C2
:1002F000016841F4E811016050F8041C41F080717C
:1003000040F8041C50F8041C89015CBF50F8041C20
:100310005FEA811107D450F8041C890103D450F816
:10032000041C8901EED5016821F003010160016818
:1003300041F00201016000BF016801F00C010829D1
:100340000ED0016801F00C01082909D0016801F004
:100350000C01082904D0016801F00C010829EBD137
:100360004EF60850CEF200004FF00061016002B07E
:100370007047000082B041F21800C4F20200016828
:1003800041F20C0C41F01001C4F2010C01605CF868
:10039000080C4FF0000E20F470004CF8080C5CF8CC
:1003A000080C42F20F7240F4401042F210734CF805
:1003B000080C00BFDCF8000040F40050CCF800004E
:1003C000C82002E0002800F07B80CDF800E0009912
:1003D000914217D80099013100910099994211D2A8
:1003E000009901310091009991420BD80099013197
:1003F00000910099914205D800990131009100992E
:100400009942E7D3CDF800E00099914218D800BF97
:100410000099013100910099914211D80099013160
:100420000091009991420BD80099013100910099F7
:10043000914205D800990131009100999942E7D382
:10044000CDF800E00099914218D800BF0099013121
:1004500000910099914211D80099013100910099C1
:1004600091420BD80099013100910099914205D831
:1004700000990131009100999942E7D3CDF800E04D
:100480000099043891429DD800990131009100995A
:10049000914297D8009901310091009991423FF61D
:1004A00091AF009901310091009991423FF68AAFD6
:1004B00000990131009100999942E5D382E700BF8C
:1004C000DCF80000DCF8001021EA0000CCF80000A5
:1004D000C82002E000283FF46DAFCDF804E0019998
:1004E000914217D80199013101910199994211D294
:1004F000019901310191019991420BD80199013182
:1005000001910199914205D8019901310191019917
:100510009942E7D3CDF804E00199914218D800BF81
:100520000199013101910199914211D8019901314B
:100530000191019991420BD80199013101910199E1
:10054000914205D801990131019101999942E7D36E
:10055000CDF804E00199914218D800BF019901310A
:1005600001910199914211D80199013101910199AB
:1005700091420BD80199013101910199914205D81D
:1005800001990131019101999942E7D3CDF804E035
:100590000199043891429DD8019901310191019945
:1005A000914297D8019901310191019991423FF609
:1005B00091AF019901310191019991423FF68AAFC2
:1005C00001990131019101999942E5D382E7000037
:1005D000E005000800000020600600002801000877
:040000050800016D81
:00000001FF
