:020000040800F2
:10000000600600206D0100087501000877010008F6
:10001000790100087B0100087D0100080000000054
:100020000000000000000000000000007F01000848
:100030008101000800000000830100080504000899
:100040008701000887010008870100088701000870
:100050008701000887010008870100088701000860
:100060008701000887010008870100088701000850
:100070008701000887010008870100088701000840
:100080008701000887010008870100088701000830
:100090008701000887010008870100088701000820
:1000A0008701000887010008870100088701000810
:1000B0008701000887010008870100088701000800
:1000C00087010008870100088701000887010008F0
:1000D00087010008870100088701000887010008E0
:1000E00087010008870100088701000800F002F876
:1000F00000F02CF80AA090E8000C82448344AAF196
:100100000107DA4501D100F021F8AFF2090EBAE893
:100110000F0013F0010F18BFFB1A43F0010318473B
:1001200020040000300400000023002400250026E5
:10013000103A28BF78C1FBD8520728BF30C148BF4A
:100140000B6070471FB51FBD10B510BD00F031F832
:100150001146FFF7F7FF00F0E1F900F04FF803B4A4
:10016000FFF7F2FF03BC00F057F800000948804792
:1001700009480047FEE7FEE7FEE7FEE7FEE7FEE789
:10018000FEE7FEE7FEE7FEE704480549054A064BA1
:100190007047000011040008ED0000086000002016
:1001A0006006002060020020600200207047704757
:1001B0007047754600F02CF8AE4605006946534678
:1001C00020F00700854618B020B5FFF7DDFFBDE839
:1001D00020404FF000064FF000074FF000084FF0AE
:1001E000000B21F00701AC46ACE8C009ACE8C0093F
:1001F000ACE8C009ACE8C0098D46704710B50446AC
:10020000AFF300802046BDE81040FFF7A8BF000014
:10021000004870470000002001491820ABBEFEE7EF
:100220002600020070474FF0E020006900204FF0E8
:10023000E02108610846406920F07F404861084697
:100240008069002088610846006940F00500086167
:10025000704700002DE9F04104460D4600210026BC
:100260002846072D03DDA0F10807B8B20126012CAE
:100270000AD11A4FBF6947F00407DFF860C0CCF815
:100280001870174F07EB8601032C0AD1134FBF6973
:1002900047F01007DFF844C0CCF81870114F07EB97
:1002A00086010F684FEA80084FF00F0C0CFA08FC2B
:1002B00027EA0C070F60870002FA07F74FEA800C65
:1002C0000CF1020C03FA0CFC47EA0C07D1F800C051
:1002D00047EA0C070F60BDE8F08100000010024003
:1002E000000801400010014070B5024600240223BE
:1002F000012A03D1074D05EB830404E0032A02D150
:10030000054D05EB8304256801268E40354025FA0E
:1003100001F070BD000801400010014010B500F070
:1003200001F810BD0CB50020019000903348006822
:1003300040F480303149086000BF3048006800F464
:10034000003000900198401C0190009818B9019865
:10035000B0F5A06FF1D12948006800F4003010B169
:100360000120009001E0002000900098012843D176
:100370002348006840F010002149086008460068E2
:1003800020F0030008600846006840F002000860A2
:100390001A4840681949486008464068486008465D
:1003A000406840F4806048600846406820F47C1053
:1003B00048600846406840F4E81048600846006815
:1003C00040F08070086000BF0C48006800F00070CA
:1003D0000028F9D00948406820F003000749486028
:1003E0000846406840F00200486000BF034840688B
:1003F00000F00C000828F9D10CBD000000100240EC
:100400000020024010B50D21032000F031F810BD8E
:1004100010B51348006840F0010011490860084613
:100420004068104908400E494860084600680E4977
:1004300008400B4908600846006820F480200860E6
:100440000846406820F4FE0048604FF41F008860B2
:10045000FFF764FF4FF000600449086010BD000022
:10046000001002400000FFF8FFFFF6FE08ED00E07C
:1004700030B504460D4629462046FFF735FF0128D2
:1004800005D100222946204600F008F804E00122A8
:100490002946204600F002F830BD000070B5034642
:1004A00000200324012B03D10A4D05EB840004E056
:1004B000032B02D1084D05EB84002AB10568012603
:1004C0008E403543056004E0056801268E40B54343
:1004D000056070BD000801400010014001B501E059
:1004E00000F006F80098411E00910028F8D108BDE0
:1004F0004FF0E0204069084908434FF0E02148618F
:1005000008468069886100BF4FF0E020006900F470
:1005100080300028F8D070473F19010000230322E3
:100520000D211046FFF796FEFFF77DFE07E04FF422
:100530007A70FFF7D3FF0D210320FFF799FFF6E74D
:100540005005000800000020600600002801000897
:040000050800016D81
:00000001FF
